:020000040000FA
:060000005DEF21F012008B
:0600080004EF08F01200F5
:060018000CEF08F01200DD
:061000005DEF21F012007B
:06100800ADEF14F0120030
:06101800F8EF14F01200D5
:02102A000000C4
:04102C0067EC0EF06F
:10103000A09A6A6A686A706A61EC0EF0FCEC0DF0C6
:10104000DF6ADF50146E156A0C0E145C000E155822
:1010500010E2DF50040DF3CFE9FFF4CFEAFF000EFA
:10106000E926040EEA22EE6AEE6AEE6AEE6ADF2AEA
:10107000E8D76D8C6E6A6D986D9C68A607D06896EF
:101080000101186B1D6B1E6B1F6BF7D70101010E61
:10109000316F326F336B346B256BDF6A030EDF5CAD
:1010A00011E2EA6ADF346AEC0EF0EA22EE6AED6AD7
:1010B000EA6ADF3471EC0EF0EA22EE6AED6AB5EC12
:1010C0000DF0ECD70101080E0E6F040E0F6F160E17
:1010D000706E0401300E026F040E036F080E016F74
:1010E000840E006F0101016B006BE55287EF0DF07C
:1010F00067EC0EF00101000507E16DBA05D0686AE2
:1011000069806988020E006F6850040B05E0695021
:10111000040B02E068943FDB6DB245D06850010BD0
:1011200009E06950010B06E081DFA08A0101040E8D
:10113000006F68906850100B05E06950100B02E0DA
:1011400020DB689868AC0FD069AC05D003EC0EF0DA
:10115000730E74EC0DF0689C01012F5101E02F0714
:101160002F5101E109D96850200B04E06950200B90
:1011700001E0F7DA6850020B0BE06950020B08E05F
:1011800003EC0EF0E6687F0EE66E78EC0EF06A6A0D
:10119000040E0101E76E0019E8AE02D0E73402D078
:1011A000E750005D02E2A19A2ED069A62BD0DF6A3B
:1011B000040EDF5C27E268A625D06CCF26F1010182
:1011C0002651780BE842E842E842276F689626B538
:1011D00004D027517FEC0EF003D0275184EC0EF0A1
:1011E000EA22EF70275102E1E2DA0AD0000EE66E41
:1011F000E66A260EE66E010EE66E720E74EC0DF0D7
:10120000DF2AD6D7A19AE55287EF0DF03BEC0EF01E
:10121000FD0EDBA403D0E66AECEC0DF0FD0EDBA2C4
:1012200004D0010EE66EECEC0DF0FE0EDB50156AFC
:10123000700F146E0F0EE6EC0DF078EC0DF0FD0E55
:10124000DBCFEFFF020EE15C02E2E16AE552E16E04
:1012500087EF0DF03BEC0EF0FD0EDB5003E06FEC82
:101260000DF002D0A6EC0DF0D2EC0DF0D9CFE9FFD5
:10127000DACFEAFFEE50ED1003E1F36AF46A28D00A
:1012800078EC0DF093EC0EF0FB0EDBCFEEFFFC0ED6
:10129000DBCFEDFF78EC0DF0EE52FA0EDBCFEFFF77
:1012A000400E89EC0EF0880E98EC0EF0FD0EDB502F
:1012B00003E06FEC0DF002D0A6EC0DF0EA22EF7423
:1012C000DECF14F0DDCF15F014C0F3FF15C0F4FF2E
:1012D000020EE15C02E2E16AE552E16E87EF0DF099
:1012E0003BEC0EF0FE0EDB5003E149EC0EF009D0B2
:1012F000ABEC0DF029EC0EF0ABEC0DF0010F29EC8E
:101300000EF0020EE15C02E2E16AE552E16E87EF67
:101310000DF082EC0DF06DA816D05AEC0EF0400ED8
:10132000EE16EE6AEE6AEE6A5AEC0EF0EE7CD7DB51
:10133000EA22EF74400E146E5AEC0EF01450EF16C1
:101340005AEC0EF0EF7CE3D36D6A696A0101006B21
:101350001200010100510FE16D6A696AFCEC0DF0A9
:10136000D08EA28AA08AF28E6DB602D06D86FCD78E
:101370000101010E006F12000101315122E1010E45
:10138000316F32511EE1010E326F020E155D07E121
:10139000B4DBEE52EF6AB1DBC80EEF6E120015053A
:1013A00010E1286BC0DBEE52080EEF6EBCDB35ECB3
:1013B0000EF0B9DB840EEF6E010E286F8CDB800E11
:1013C000EF6E12000101336B346B020E155D06E106
:1013D0008DEC0EF0ADDB24EC0EF010D019510401B1
:1013E000365D01011A510401375904E236C419F17E
:1013F00037C41AF161D881DB9BDB7FDBC80EEF6E4F
:1014000012003BEC0EF0000EDE6E040EDD6EA3DB70
:10141000040DF4CF15F0D9CFE9FFDACFEAFFF3508E
:10142000EE261550ED2264DBEF9EFD0EDB5002E14F
:101430008DDB01D054DBEA22DECFEEFFDDCFEDFF06
:1014400057DBEF9C55DB040EE926000EEA22EF8CF9
:10145000020EE15C02E2E16AE552E16E58D36D985A
:10146000010118BF0DD01DAF09D0020E156F345108
:1014700001E1A8DF0101326B316B120049EF0EF080
:10148000040130AF0DD00101010E156F335101E1A0
:1014900099DF0101326B316B30510DE1BCEF09F086
:1014A0000101020E156F17DB840EEF6E326B316B8C
:1014B000305101E161DF120067EC0EF0080EDF6EC3
:1014C0000101195D000E1A590AE219C1DFFF14511A
:1014D00002E1010E03D0140502E1020E146FDF5089
:1014E000156AE850195D196F15501A591A6F05DB06
:1014F000EE52DFCFEFFF380E226F040E236F18B1CC
:101500000DD0DF5017E016C1F6FF17C1F7FF162BFD
:10151000000E17230800F55038DBF3D7DF500AE040
:1015200016C1E9FF17C1EAFF162B000E1723EF5073
:101530002CDBF4D7E552EBD29EDBF5DAEE52EFCF9F
:10154000DFFFDFCF14F0145001011E5D000E1F59A4
:1015500002E21EC1DFFFDF50146E156AE8501E5D07
:101560001E6F15501F591F6F010EDB6ADF50F36E9F
:10157000010EDBCFF4FFF350F45C16E2010EDB50FA
:10158000EA6A380FE96E040EEA22EF50E66E1BC1DC
:10159000E9FF1CC1EAFF1B2B000E1C23E552E7509C
:1015A000EF6E010EDB2AE2D7000ED8801E55000E2A
:1015B0001F550DE2B2DBBCDAB6DAEF50400B03E1A7
:1015C00043DBC80E02D040DB880EEF6E12D083DA08
:1015D000840EEF6E2051211107E005D021C1FAFFE2
:1015E00001012051F96EFADF01011D9F305101E127
:1015F000C3DE020EE15C02E2E16AE552E16E87D2EF
:1016000066DB0101188F5DDB300EE66EE66AE66A86
:10161000000EE66E040E92DA6D8CDF6A030EDF5C5C
:1016200002E2A3DAFBD70BDB020EE66E010E86DACE
:101630006D9C0101080E0E6F040E0F6F000E046FFB
:10164000040E056F04C106F1076F32C401F10151A8
:1016500002E1100E0BD0010EE66EE66A010EE66E98
:10166000010EE66E010E40DA0101200E006FE55218
:101670004ED2800E0401305D38E10101C00E186FBA
:1016800004013351030A1AE0010A09E0030A2BE1BD
:101690000101420E166F3D0E176F120E1ED0C1DAF9
:1016A000030EF6263E0EA0DA020E0101B3DAF5CFE4
:1016B00019F1030EAFDAF5CF1AF11200030E325D05
:1016C0000FE2AFDA050EF6263E0E8EDA16C1F6FFF1
:1016D00017C1F7FF0800F5500101196F1A6B1200CE
:1016E0000101186B12000101186B1200C4DA040129
:1016F000386B396B30511F0B020A11E0030A0CE002
:10170000010A1EE10101188F04013881010124053D
:1017100017E10401388314D00101188F11D00101A1
:10172000188F040134BF02D0BBDA01D0BEDA3ADA36
:10173000C4DA06E0DDD9EF50040B02E0010E386F89
:10174000010118AF07D0380E166F040E176F1881FD
:10175000020E196F020EE15C02E2E16AE552E16EEF
:10176000D6D170A00CD0DFD9EF50800807E1C5D9E1
:10177000EF50840803E1D7D98C0EEF6E7090689A11
:101780001200698468986D820101010E256F10DADC
:10179000750E74EF0DF00101256B0ADA740EA4D9F1
:1017A0006D92699468A402D06894FCD712008FDA15
:1017B00001012D0E2F6FFD0E261539E17E0E261527
:1017C000E8407F0B040DF3CF04F1F4CF05F1000ED8
:1017D0000427040E052304C106F105C107F10675AF
:1017E000A2D9EF503C0BE842E8420D081EE1DF6A47
:1017F000080EDF5C16E297D9020EE926000EBFD96B
:10180000EF50E66EDF50EA6A300FE96E040EEA220E
:10181000E552E750EF6E87D986DAEE2AEF22DF2A0B
:10182000E7D781D922DA0AD807D023D805D0FD0E10
:101830002615040801E12CD8E55269D10101146B89
:10184000306B336B346B286B156B57D9EF9E0E756D
:1018500054D9EF9E0E75F8D9EF9E186B196B1A6B61
:101860001D6B1E6B1F6B4ED8A3D9030E3DD92FEFF6
:101870000AF0020E0101155D02E19CEF0AF0156B02
:10188000285104E128D98C0EEF6E1200286B12004B
:101890001EDA33D9EF50400B01E0010EDF6E01017B
:1018A0000E75080E005D08E132C46EFF6E5002E056
:1018B000100E01D0040E006F150513E11ED938D9A2
:1018C000FBDD020E0101145D03E117D9840E07D080
:1018D000DF5003E112D9C80E02D00FD9880EEF6E87
:1018E0000FD01DAF0CD02051211107E005D021C130
:1018F000FAFF01012051F96EFADF01011D9F156BFE
:10190000E55205D104013051600BE842E842E8425B
:10191000E842E842000901E0120031510C0A45E0BA
:101920000B0A3FE00C0A31E0010A22E00B0A1EE03C
:10193000020A1CE0030A18E0080A10E0010A0CE0A1
:101940000F0A08E0030A01E012000101188F080ED7
:10195000006F120039EF0BF000EF0BF00101010EE8
:10196000166F010E176F0CD076EF0BF0D6EF0CF060
:1019700034510101166F176B020E1627010E172343
:101980001881010E196F188F12000101188F0401C0
:101990003451EA6A020FE96E010EEA2232C4EFFF07
:1019A000120006D9020E74EF0DF01200ABD8050E2E
:1019B000E1260401320510E130511F0B00090CE152
:1019C0000101188F030E0401315D04E10101010ED4
:1019D000246F02D00101246B0401325101E074D064
:1019E00030511F0B020870E134510F0B00096CE0FD
:1019F00034510F0B020868E3200E0101005D64E121
:101A0000188F040134BF04D04BD9CCD8D7D803D019
:101A10004CD9C8D8D7D8EA22020EEFCFDBFF08D9BD
:101A2000010B03E1000EDF9401D0DF8434BF02D04C
:101A300037D901D03AD9EA22DECFEEFFDDCFEDFF74
:101A4000030E315D0CE139D907E034BF02D0B6D8BE
:101A500001D0B8D8EA22EF82840E6AD935D0DF747B
:101A60002CD906E045D8EF9E43D8EF8C08D902D098
:101A70003FD8EF8CDF74DCD8020B02E11ED90DE0F9
:101A8000040134BF02D09AD801D09CD8EA22EF9248
:101A90003B0E146E3ED9F3D802D03B0E3AD9040166
:101AA00034510F0B156A700F146E0F0E1522030EB2
:101AB00014C0DBFF040E15C0DBFF030EDBCFE9FF14
:101AC000040EDBCFEAFFEF90050EE15C02E2E16A73
:101AD000E552E16E1CD021D9C8D824EF0EF0FE0EDD
:101AE000EA6ADB346AEF0EF0E66EE66A78EF0EF033
:101AF000DECFE9FFDDCFEAFF12000EC1E9FF0FC123
:101B0000EAFF1200D9CFE6FFE1CFD9FF1200E5527C
:101B1000E7CFD9FF120034510F0BE96EEA6AD89073
:101B2000E936EA36120004C1E9FF05C1EAFF1200F6
:101B3000FAD8380EEE6E040EED6E1200E66E3BEC37
:101B40001EF0146E050EE15E14501200FE0EEA6ADD
:101B5000DB3471EF0EF0FD0EDB50E824166EFE0E46
:101B6000DB50040DF35016241200DF50CDD8EA22CA
:101B7000EF6ADF50C4D8EA22EF6ADF2A1200EA22B5
:101B8000EE50EFCFEAFFE96E1200E66E22C1E9FFE8
:101B900023C1EAFF222B000E2323E552E750EF6E0C
:101BA000DF061200EA22EECFDEFFEDCFDDFF1200EE
:101BB000000EE66EE66AE66EE66A120034510F0B1E
:101BC0007FEF0EF034510F0B84EF0EF0152214C08E
:101BD000DEFF15C0DDFF1200FE0EDBCFE6FF01ECDD
:101BE0000AF0E552E5521200F7220900F5CF16F18E
:101BF0000A00F5CF17F11200160E6F6E9F0E6B6E76
:101C00007B0E696E1200010EE66EE66A000EE66E4D
:101C1000E66A1200F76A1625F66E1751F7220800D9
:101C200012003251F66EF76AD890F636F736120087
:101C3000D950020FE96EDACFEAFFEF501200020E20
:101C4000E66EE66AE66A120006C1E9FF07C1EAFF2E
:101C50001200040DF3CF14F0F4CF15F0000E14268B
:101C6000040EB4DF840E98EF0EF05DD8300EEE6EE9
:101C7000040EED6E120046DF020EE1261200020E87
:101C8000E66EE66ADECFE6FFDDCFE6FF050E74EF17
:101C90000DF021DF8C0EEF6E30DF840EEF6E120040
:101CA0003ADF080EE926010E120035DF0E0EE92696
:101CB000010E120014DFBFEF0DF01ADFEF50800BA2
:101CC0001200BDDF710EE66E0F0E9EEF0DF01ADFF3
:101CD000E6521200FE0BEA36E96E0E0EE926010E00
:101CE0001200FE0BEA36E96E080EE926010E12001C
:101CF00033EC18F0146E060EE15E14501200EA6A1E
:101D00002C0FE96E010E1200EA6A290FE96E010E2E
:101D10001200EEDEE850EF16120096DFEE52080ECB
:101D2000EF6E24EF0EF0020EE926000EEA221200FA
:081D3000DFDEE850EF121200A3
:081D3800D8EC13F0FB0EDBCF29
:101D4000F3FFDB06F35000090AE026EC14F0FA0E6C
:101D500091EC14F0F3E1151CF1E1010E01D0000E3D
:101D600007EF14F0D8EC13F03B0EE12402E3E16836
:101D7000E652E16E010EDB6A020EDB6AF90EDBCF82
:101D8000F6FFFA0EDBCFF7FFFB0EDBCFF8FF080004
:101D9000F550DF6EDF5002E12BEF13F0250EDF5C14
:101DA00002E01EEF13F0030EDB6A040EDB6A050E81
:101DB000DB6A060EDB6A070EDB6A40EC13F02D0EC1
:101DC000DF5C0CE02B0EDF5C09E0200EDF5C06E040
:101DD000230EDF5C03E0300EDF5C1AE1DF50300AD7
:101DE00014E0130A0FE0030A0AE00B0A05E0060AF2
:101DF000E4E1030EDB80E1D7030EDB82DED7030EC6
:101E0000DB84DBD7030EDB86D8D7030EDB88D5D780
:101E10002A0EDF5C1BE13CEC13F08AEC13F010E0BF
:101E2000030EDB8006680768130EDBCF0DF0140E7F
:101E3000DBCF0EF07CEC20F0040E04C0DBFF03D0FF
:101E4000130E73EC13F040EC13F00BD0090EDB6AA9
:101E5000E1EC13F003E055EC14F0FAD7090E73EC43
:101E600013F0030EDBB0DB982E0EDF5C1BE140ECC1
:101E700013F02A0EDF5C0BE13CEC13F08AEC13F05C
:101E800003E1130EC5EC13F040EC13F00BD0090E78
:101E9000DB6AE1EC13F003E055EC14F0FAD7090E1D
:101EA000C5EC13F0680EDF5C07E140EC13F0680E40
:101EB000DF5C1DE1030E18D0740EDF5C17E07A0EB4
:101EC000DF5C14E0480EDF5C06E0540EDF5C03E0EC
:101ED0005A0EDF5C02E1020E07D06C0EDF5C03E0FD
:101EE0006A0EDF5C04E1010E18EC14F0C9DBDF5070
:101EF0006E0A01E17FD31E0A01E192D1200A01E1BD
:101F00008FD13F0A01E149D11A0A01E146D10D0AF8
:101F100001E143D1200A01E140D13A0A01E13DD17A
:101F2000200A01E13AD1260A01E135D10D0A01E189
:101F300032D11A0A01E1D9D0200A4AE0300A1FE062
:101F4000460A0EE0250A01E083D3D950F90FE96E65
:101F5000FF0EDA20EA6E010EEE5E000EEE5AEE5A29
:101F600026EC14F0250EE66E95DB03E1151C01E16D
:101F700069D322EC14F001E26BD3DB2A69D3080E9B
:101F8000DB6A040EDB50010806E2040EDB04EAEC17
:101F900013F0DB508BDB080EDB5009E0030EDB5047
:101FA000010B05E172DB01E04DD3080EDB6A64DB57
:101FB000EFCFDFFF9AEC14F003E1151C01E142D3EF
:101FC00022EC14F001E3DB2A60DB01E141D33AD3D8
:101FD000070EDB5002080FE166EC14F0030E2DEC47
:101FE00014F00E0EEECFDBFF0F0EEECFDBFF100E68
:101FF000EECFDBFF20D0F70EDBCF17F0F80EDBCFF4
:1020000018F0020E175E000E185AF70E17C0DBFF0D
:10201000F80E18C0DBFF17C0E9FF18C0EAFF1DEC7F
:1020200014F0166A0E0E14C0DBFF0F0E15C0DBFF96
:10203000100E16C0DBFF0E0EDBCFE6FF0F0EDBCF60
:10204000E6FF100EDBCFE6FF7CEC1EF0E552E5521A
:10205000E552130E05C0DBFF140E06C0DBFF060EB3
:10206000DB5005E0130E61EC14F001E26ADB85EC55
:1020700014F002E2130E37DB48EC14F006E0040E15
:1020800061EC14F002E2050E2EDB030EDBB005D08E
:10209000FCDA01E0D7D2080EDB6A090EDB6A0E0E0D
:1020A000DBCFF6FF0F0EDBCFF7FF100EDBCFF8FF15
:1020B0000800F550DF6EDF5014E08BEC14F011E2F5
:1020C0009AEC14F003E1151C01E1BCD2BBDB01E387
:1020D000DB2A090EDB2AD9500E0FE96E000ECBDB8E
:1020E000E7D7D3DA01E1B4D2ADD2C6DA110EEECF22
:1020F000DBFF120EEDCFDBFF110EDBCFE6FF120E82
:10210000DBCFE6FF6EEC1EF0E552E552130EF3CF87
:10211000DBFF140EF4CFDBFF060EDB5004E0130EE2
:10212000D0DB01E20EDB85EC14F002E2130EDBDA09
:10213000AFDB05E0040EC5DB02E2050ED4DA030EC8
:10214000DBB005D0A2DA01E07DD2080EDB6A090E11
:10215000DB6A110EDBCFE9FF120EDBCFEAFFEFCF18
:10216000DFFFDF5014E0D7DB12E2E4DB03E1151CF4
:1021700001E168D267DB01E3DB2A090EDB2A110EDD
:10218000DB2ADBCFE9FF120EE8E3DB2AE6D77DDAB4
:1021900001E15ED257D2030EDB8E070EDB0410E1A5
:1021A00095DB040E5ADB0A0EEECFDBFF0B0EEECFF3
:1021B000DBFF0C0EEECFDBFF0D0EEECFDBFF6CD0A6
:1021C000070EDB5003082CE1030EDBAE0DD0B2DAB4
:1021D000020E76DAEFCF14F0156A166A176A14AE9B
:1021E00039D01568166835D0F70EDBCF15F0F80E2C
:1021F000DBCF16F0020E155E000E165AF70E15C054
:10220000DBFFF80E16C0DBFF15C0E9FF16C0EAFFC2
:10221000EFCF14F00A0E14C0DBFF0B0EDB6A38D0D0
:10222000070EDB50020809E1030EDBAE04D059DBD8
:1022300016AE10D00ED055DB0DD0030EDBAE12D093
:1022400079DA020E3DDAF9DA166A176A15AE02D0AB
:1022500016681768E2DA0C0E16C0DBFF0D0E17C009
:10226000DBFF1AD0F70EDBCF16F0F80EDBCF17F03E
:10227000020E165E000E175AF70E16C0DBFFF80EA0
:1022800017C0DBFF16C0E9FF17C0EAFFD6DAC5DAD0
:102290000C0EDB6A0D0EDB6A060EDB5005E1010E4B
:1022A000F36E050EF3CFDBFF150EDB6A160EDB6A4D
:1022B000D950370F146E000EDA20156E390E14C087
:1022C000DBFF3A0E15C0DBFF380EDB6A080EDB6A57
:1022D0000A0EAEDADF50780A12E0200A10E0280A6F
:1022E0000CE0200A0AE03F0A06E00D0A02E0200A9C
:1022F00008E1020E05D0080E03D0080EDF26100EEE
:1023000097DA030EDBBE02D0DB92DB94DB50800B4E
:1023100024E08ADAD890030EEB50000A08E6000E9B
:10232000EE5C000EEE58000EEE58000EEE5815E270
:1023300013DA0B680C680D680E6844EC20F00A0E86
:1023400000C0DBFF0B0E01C0DBFF0C0E02C0DBFF89
:102350000D0E03C0DBFF2D0E08D0030EDBA202D052
:102360002B0E03D0DBA408D0200EF36E170EF3CF94
:10237000DBFF150EDB2A02D0170EDB6A050EDB50E1
:1023800003E1B7D901E189D0080E146E430E156E32
:10239000000E166E070EDBCF17F0186A196A1A6A5C
:1023A00017C00BF018C00CF019C00DF01AC00EF0D9
:1023B000D3D9A9EC20F014500024F36E155001205D
:1023C000F46E16500220F86EF4CFF7FFF3CFF6FF4D
:1023D0000800090EF5CFDBFF580EDF5C0FE1610E40
:1023E000F36E090E7BD90AE3200E146E090EDBCFC3
:1023F000E7FF1450E75E090EE7CFDBFF070EDBCFE8
:1024000014F0156A166A176A0FDA14C00BF015C0BB
:102410000CF016C00DF017C00EF0EECF04F0EECFAA
:1024200005F0EECF06F0EFCF07F0A9EC20F007C0E3
:10243000EDFF06C0EDFF05C0EDFF04C0EFFF390E54
:10244000DBCFE9FFDB063A0EDBCFEAFF01E2DB067A
:10245000090EDBCFEFFF150EDB2A4BD995E1030EFA
:10246000DBA61DD06F0EDF5C06E1C1D918E3150EA7
:10247000DB285BDA14D0780EDF5C09E0580EDF5CF5
:1024800006E0620EDF5C03E0420EDF5C08E1020E54
:10249000F36E160EF3CFDBFF02D0150EDB6A030ED0
:1024A000DB50100B0EE0040EDBCF14F0050EDB50FA
:1024B000D880145406E2060EDB5003E1040EDB5014
:1024C00034DA95D90AE2050EDBCFE7FF150EDB50B3
:1024D000E75E050EE7CFDBFF02D0050EDB6A040ED8
:1024E000DBCF14F0160E45D9D880145414E2160E22
:1024F000DBCFE6FF150EDBCFE6FF040EDBCFE6FFFA
:10250000050EDB50E552E75CE552D880E754E55212
:10251000D880E7545FD9030EDB50010B0BE1080EA6
:10252000DB5008E0B2D801E08DD0080EDB50BED8F9
:10253000080EDB6A170EDB5007E088D9170EF1D9B9
:1025400003E1151C01E17ED0160EDB5016E07ED9AA
:10255000300EE66E9FD802E1151C74E077D9DFCF0C
:10256000E6FF02EC20F0E552E552E552F4CF15F01B
:102570000001F31C02E1151C65E0050EDBCF14F031
:10258000160EDB50D880145409E2050EDBCFE7FFAE
:10259000160EDB50E75E050EE7CFDBFF300EE66E72
:1025A000050ECBD94FE1390EDB2ADBCFE9FF3A0E1E
:1025B00001E3DB2ADBCFEAFF090EEFCFDBFFDB50C5
:1025C0000EE044D9090EADD902E1151C3BE0390EED
:1025D000DB2ADBCFE9FF3A0EEDE3DB2AEBD755D858
:1025E00031E1160EDBCFE6FF080EC3D8E552E72433
:1025F0005DD82ED0070EDB50030A1CE0010A14E060
:10260000030A07E07BD9DBCFEEFF020EDBCFEDFF45
:102610001FD0F5D8196A17AE02D0186819682CD8DF
:10262000BCD819C0EEFF14D0EAD817BE186824D859
:10263000B4D80ED063D9DBCFEFFF0AD07BD905E148
:10264000151C03E1F368F46810D0FCD801E3DB2A21
:1026500079D9C7EF0EF0010EDBCF14F0020EDBCFFD
:1026600015F014C0F3FF15C0F4FF3B0EE15C02E26D
:10267000E16AE552E16ECBD029D9020E2DEF14F0BC
:1026800061D90800F550DF6E1200200EE66E080ECC
:102690009DEF14F002EC20F0E552E552E552F3CF45
:1026A00014F0F4CF15F00001F31C1200146E156A3B
:1026B000D950010F4DD91450EE261550ED221200BD
:1026C000185E000E195AF70E18C0DBFFF80E19C07D
:1026D000DBFF18C0E9FF19C0EAFF1200DBCFF4FFEF
:1026E000F350F45C1200DB50E76E040EE7CFDBFF23
:1026F00012000A0EDBCF14F00B0EDBCF15F00C0E20
:10270000DBCF16F00D0EDBCF17F01450151016109E
:1027100017101200130EEECFDBFF140EEDCFDBFF10
:10272000130EDBCF14F0140EDBCF15F00001800E7A
:1027300015141200F70EDBCF18F0F80EDBCF19F0EE
:102740001200050EDB50E66ED950130F01D9E55289
:10275000E750EE6EED6A12000A0EDBCF04F00B0EAE
:10276000DBCF05F00C0EDBCF06F00D0EDBCF07F054
:102770001200DBCFE6FF150EDBCFE6FF050EDB50C8
:10278000E552E724E552E7241200DB50CED8010ED3
:10279000F36E060EF3CFDBFF1200EE50EFCFEAFF31
:1027A000E96E16C0EEFF17C0EEFF18C0EEFF120074
:1027B000D9CFE6FFDACFE6FFE1CFD9FFE2CFDAFFEC
:1027C0001200DFCFE6FFE66A3BEC21F0E552E5526E
:1027D000F3501200E76E080EE7CFDBFF1200EECFDA
:1027E00014F0EECF15F0EFCF16F0176A1200050EB9
:1027F000DBCF14F0150EDB50D88014541200010EFC
:10280000DBCF16F0020EDBCF17F0186A1200E5528C
:10281000E5CFDAFFE7CFD9FF12000A0E14C0DBFFC5
:102820000B0E15C0DBFF1200D9500A0FA8EF14F0F1
:10283000F36E070EF3CFDBFF1200EECF14F0EFCFF5
:1028400015F01200010EDB2A020E1200FC0EDBCF87
:10285000E6FFFD0EDBCFE6FF1200145E000E155AF8
:10286000F70E14C0DBFFF80E15C0DBFF14C0E9FF44
:1028700015C0EAFF1200DA20EA6EEF2AEECFF6FF6B
:10288000000EEF22EECFF7FFEF22EECFF8FF12009F
:10289000040EDBCFE6FF130EDB50E552E75C9ADF58
:1028A000DB5004DF060EDB501200090EDB500A0D70
:1028B000F350DF24D00FE76E090EE7CFDBFF40EFC8
:1028C00013F0DB50F36E050E6EEF13F0F70EDBCF57
:1028D00014F0F80EDBCF15F01200DFCFE6FF4AEF61
:1028E00013F028DF030EECDEEFEF13F09CEC0EF09C
:1028F000E552E552E552E55200091200BDDEEE5008
:10290000EFCFEAFFE96E010E1200130EDB50F36EFB
:10291000040E6EEF13F0040EDB50F36E090E6EEF33
:1029200013F0DBCFE6FF4AEF13F0E76E050EE7CFBB
:10293000DBFF12008BDF6DEF14F0DBCFE6FF86DFED
:1029400076EF14F0D950F90FE96EFF0E3BEF14F05B
:0A295000E96E000EDA20EA6E1200B4
:06295A00DACFE4FFE2CF3A
:10296000DAFFE9CFE4FFEACFE4FFF6CFE4FFF7CFE9
:10297000E4FFF5CFE4FFF3CFE4FFF4CFE4FFFACFB9
:10298000E4FF00EE00F0140EE80403E3EECFE4FFF2
:10299000FBD700EE14F0080EE80403E3EECFE4FFEB
:1029A000FBD7E65278EC08F0E55200EE1BF0080E7B
:1029B000E80403E3E5CFEDFFFBD700EE13F0140EC0
:1029C000E80403E3E5CFEDFFFBD7E5CFFAFFE5CF62
:1029D000F4FFE5CFF3FFE5CFF5FFE5CFF7FFE5CF58
:1029E000F6FFE5CFEAFFE5CFE9FFE5CFDAFF11001B
:1029F000D8CFE4FFE0CFE4FFE46EDACFE4FFE652A5
:102A0000E552E5CFDAFFE550E5CFE0FFE5CFD8FFAF
:102A1000100007D80101005102E1A9EC09F031D8FA
:102A2000F9D70F0EC11202D816EF08F09298929AB9
:102A30009386938892908098809A8090850ED56E28
:102A4000FD0ECD6E38EC19F0E66A020EE66E000E51
:102A5000E66E060EE66E3DEC19F0C8DBE66A010E86
:102A6000E66E000EE66E020EE66E3DEC19F0BEDB81
:102A7000100EE66E4CEC1DF0E5520001010EE06F09
:102A800012008098809015D92BD9F2D902D876EF10
:102A90001CF08ADB1A0EE126200E0101E76E0019F8
:102AA000E8AE02D0E73402D0E750005D01E2FAD090
:102AB0006D50020B01E0F6D00001E45101E0F2D0CC
:102AC000180EDB6A190EDB6A78DBDF5001E1EAD011
:102AD000100EDB687FDBD9500E0FE96EDACFEAFF0C
:102AE000A00EEE6E000EED6E140EDB6A150EDB6AA4
:102AF000120EDB6A130EDB6A110EDB6A010EDB6A53
:102B0000DF50F36E010EDBCFF4FFF350F45C01E312
:102B1000BBD0A4DB0D0803E0A1DB0A0814E1D95007
:102B2000140FE96EDACFEAFF000ED880EE54000EE3
:102B3000ED5401E3B7D0140EDBCFE6FF150E63DBD7
:102B40004BD99DD9AFD0100EDB50FF080EE186DBCC
:102B50007C0808E071DB14BE1568D7DA980E186E91
:102B60003E0E7CD0100EDB6A8CD0100EDB5014E1D0
:102B700075DB48080BE072DB4C0808E05DDB14BE37
:102B80001568C3DA700E186E3E0E68D0010EF36E33
:102B9000100EF3CFDBFF75D0100EDB0472E15EDBAD
:102BA0007C0843E1100EDB6A0C0EDBCF14F00D0E37
:102BB000DBCF15F0D950020F166EDACF17F0E850C0
:102BC00014180BE11750151808E136DB14BE156810
:102BD0009CDA4C0E186E3E0E41D00DDB01E3DB2A71
:102BE000EF6AD950020FC7DAC6EC1DF0E552E55284
:102BF000160EF3CFDBFF170EF4CFDBFFD950120F09
:102C0000BADAD950140FB7DA160EDBCFE6FF170E7B
:102C1000DBCFE6FFFFDA110EDBCFE7FF1550E7262B
:102C2000110EE7CFDBFFD6DA2CD0300E146E16DB98
:102C3000D88014540CE312DB390809E30FDBE66E8D
:102C4000DADA01E3DB2AE552E750EF6E1AD0F4DA64
:102C500014BE15685ADA210E186E3E0E196E1A6AE5
:102C600018C0E6FFE66E1AC0E6FFF3DA5DEC1FF06F
:102C70001B6E090EE15E1B50ECDA8CD9E552E55271
:102C800011D0010EDB2A3CD7DF50146E156AD950E3
:102C9000180FE96EDACFEAFF1450EE261550ED2238
:102CA0008CDA2CD71A0EE15C02E2E16AE552E16EA1
:102CB00080D28150E66E61EC1DF0E552C0EC1DF053
:102CC000100B07E00001E05102E0000E01D0010E00
:102CD000E06F0001E051E8B0808AE8A0809A12001D
:102CE00063DA080EE1260001E0516FE081B66DD095
:102CF00047DAF294020EDB6A060EDB6A070EDB6A25
:102D0000040EDB6A050EDB6A030EDB6A030EDB5082
:102D100053E1020EDB5002E0000E01D0010EE8B0DC
:102D20008088E8A080989DDAF250040B11E1DECF94
:102D300014F0DDCF15F0166A1634000E161807E6EB
:102D4000D880600E1454EA0E1554000E16540BE28F
:102D5000600EDE6EEA0EDD6EF294010EF36E030E6F
:102D6000F3CFDBFF09D08150080B01E0010E146E98
:102D7000020EDB50145CD7E003DAD950040FFBD904
:102D8000D950060FF8D9DECFE6FFDDCFE6FF42DAF5
:102D9000146E030EDBCFE7FF1550E726030EE7CFD7
:102DA000DBFF020EDB5002E0000E01D0010EE76EE9
:102DB000020EE7CFDBFFAAD78098060EDBCFE6FF37
:102DC000070E21DAC8D901E007D8080EE15C02E25B
:102DD000E16AE552E16EEDD1E7D9070EE126010E79
:102DE000F36E020E1EDA030EDB6A040EDB6AB3D941
:102DF00038E0D950030F25DAF3CFDEFFF4CFDDFF43
:102E0000D9CFE9FFDACFEAFFFF0EEE1806E1FF0E99
:102E1000ED1803E10DDA1EE124D0DECFE6FFDDCFB1
:102E2000E6FF020EDB5002E0480E01D04C0EE66ECB
:102E3000E66A1B0E146E3E0EABD9090E94D9020E33
:102E4000DB5002E0000E01D0010EE76E020EE7CF6C
:102E5000DBFFCDD7170E146E3E0E9AD9050E83D91F
:102E6000E7D9070EE15C02E2E16AE552E16EA1D129
:102E7000BAEC1DF0100B01E112003FEF17F094D9EE
:102E8000090EE1267DD9F294010EF36E040EC9D924
:102E9000070EDB6A080EDB6AD950070FD2D9020E83
:102EA000F3CFDBFF030EF4CFDBFFD950020FE96E47
:102EB000DACFEAFFFF0EEE1803E1FF0EED183BE05C
:102EC000020EDBCF14F0030EDBCF15F0166A600E96
:102ED000141805E1EA0E151802E116502CE0040E54
:102EE000DB50E8B08088E8A08098040EDB50E8B0A2
:102EF0008080E8A0809061D81ED905E280988090FB
:102F000067D819D9ECE33CD9040EDB5002E0000E7F
:102F100001D0010EE76E040EE7CFDBFFDB50E8B017
:102F20008088E8A08098040EDB50E8B08080E8B08C
:102F3000B3D78090B1D7780EE66E24EC21F0E5523D
:102F4000809880900B0EE66E3E0EE66E0BD8E55232
:102F5000E55280988090090EE15C02E2E16AE55258
:102F6000E16E27D121D964D914E0FD0EDBCF14F036
:102F7000FE0EDBCF15F0166A14C0E6FF15C0E6FFA3
:102F800016C0E6FF66D955EC1EF0176E050EEBD89D
:102F9000E2D80FD109D9DFD80FE0FD0EDBCFE6FF75
:102FA000FE0EDBCFE6FF33EC1CF0E552E55217D8FE
:102FB000F4CF15F0F350F410FCD00A0EE66E79EC65
:102FC00021F0E552000000000000000000001200A7
:102FD000150EE66E79EC21F0E55200001200000EAD
:102FE000E66EE66AECEC20F0E552E5529E909EB06B
:102FF00009D00001E45103E1010EF36E04D076EC38
:103000001CF0F5D7F36AF46A120012001200ADEF5B
:103010001DF0120058EF1BF01200A6EF1BF001018B
:10302000240520E1010125051DE1A09AEFDF6D9245
:103030000101256B0001100EE16F0E0EE26FE1073A
:10304000000EE25BE151E211FAE16D84080EE16FDE
:10305000070EE26FE107000EE25BE151E211FAE1D7
:103060006D94A08A1200A0D8FD0EDBCF06F0FE0EF4
:10307000DBCF07F0050E061801E1075036E0E868DF
:10308000061802E17F0E07182FE0030E061801E173
:10309000075028E0020E061801E1075021E0010E5A
:1030A000061801E107501AE0740E061801E10750F6
:1030B00013E0750E061801E107500CE0730E0618B8
:1030C00001E1075005E0720E06180FE107500DD020
:1030D0009EDF0BD09ADF09D099DF07D09EDF05D0A5
:1030E0009BDF03D097DF01D094DF010E62D0010E89
:1030F000DB50E76E0E0EDBCFE9FF0F0EDBCFEAFFF2
:10310000E750E926000EEA22120014C0E6FF15C0BF
:10311000E6FF010EDB50E76E180EDBCF16F0190E3E
:10312000DBCF17F0E7501626000E172216C0E6FF79
:1031300017C0E6FF120095D8DECF14F0DDCF15F0F2
:10314000020EDBCF16F0030EDBCF17F01650145C27
:1031500017501558120043DFF3CF14F0F4CF15F0D9
:10316000F350F4101200E15E175073D833EC1CF0EA
:10317000E552E5521200E66E000EDA20E66E12000D
:10318000000EE66EE66A08EC21F0E552E552120008
:10319000156E166A14C0E6FFE66E16C0E6FF59D833
:1031A0005DEC1FF0176E1200D9CFE6FFE1CFD9FF1B
:1031B0001200E552E7CFD9FF1200400EE66EA00ED6
:1031C000E66E000EE66EE6EC1BF0E552E552E552C7
:1031D000DF6E1200D950020F146EDACF15F00C0E0C
:1031E00014C0DBFF0D0EDACFDBFF1200E552E55213
:1031F000E552E55212000C0EDBCFE9FFDB2A0D0E83
:10320000DBCFEAFF1200DBCFE6FF2BEC1AF0E55232
:10321000E5521200DBEC19F0156E060EE15E15505A
:103220001200F3CFDBFF050EDB6A060EDB6A12002D
:10323000D6DEF350F41012005ADFEFCF14F0156A07
:10324000120099DFD950050F96DF5CEC19F0F6EF0C
:1032500018F0600EE66E000EE66E120048DFEF50CA
:103260001200CDEC20F0F3CFDEFFF4CFDDFF120033
:103270000101496B4A6B4B6B12008CD9010149511A
:1032800050D9FD0EDBCFEEFFFE0EDBCFEDFF495137
:1032900048D9FFD9FB0EDBCFEEFFFC0EDBCFEDFFF5
:1032A000492BFB0EDBCF06F0FC0EDBCF07F0065000
:1032B0004A2707504B2373D16DD9040EE126D4D988
:1032C000C7D9010E97D9E1D8E552E552E76E010E54
:1032D000E7CFDBFF68D9020E14C0DBFF030E17C077
:1032E000DBFF18D9B5D9020E1426000E15226ED9AF
:1032F0004DE3020EDBCF06F0030EDBCF07F0E868EC
:10330000061802E1E868071841E0FD0E061802E120
:10331000E868071820E0FE0E061802E1E8680718C2
:103320000CE09BD9FE0EEE1834E1FF0EED1831E1F2
:10333000F1D8EE2A000EEF220AD0B0D995D94CD997
:10334000FE0EEE6EED68E6D883D940D91FE3DF505C
:10335000146E156A25D0A2D987D9EE2A000EEF2265
:10336000D9D806D9E76E010EE7CFDBFFD3D834D921
:10337000FD0EEE6EED68DBCFE9FFFE0EDBCFEAFF60
:1033800067D924D903E3010E0ED90AD0F368F46893
:103390000BD084D9020EDBCF14F0030EDBCF15F077
:1033A00014C0F3FF15C0F4FF040EE15C02E2E16A11
:1033B000E552E16EF4D0EED8040EE126C1D843D92F
:1033C000FED803E3BDD8FE0E02D0BAD8FD0EEE6ED5
:1033D000ED686BD91450DF1803E11550DE52DD188B
:1033E00011E063D90FD961D9FF0E1416000E15161E
:1033F000030E14C0DBFF84D822E19DD8020E80D8D2
:103400001EE199D8DCD804E3FD0E7AD81AE017D073
:10341000FD0EFE0EDBCF15F0F5D8FF0EE76EFD0EAC
:10342000DBCF14F0FE0EE7501416156A030E14C01D
:10343000DBFF66D804E17FD8020E62D802E0010EFD
:1034400001D079D8146E040EE15C02E2E16AE55223
:10345000E16E1450A4D09ED8020EE76E78D8E750E3
:103460001426000E1522B2D80FE3E668FD0EDBCF5E
:10347000E6FFFE0EDBCFE6FF00D9E668010EE76E41
:1034800066D8E750B7D8F9D88AD084D8C2D8A9D896
:1034900008E207D903E2EDD8D6D803D0EAD85ED83F
:1034A000F6D7BED802E1FF0E03D051D8C0D8EF50F6
:1034B000146E030EE15C02E2E16AE552E16E145023
:1034C0006ED068D8A6D88DD808E2EBD803E2D1D860
:1034D000BAD803D0CED842D8F6D7A2D802E1010E8E
:1034E00006D035D8A4D8FC0EDBCFEFFF000E146E4B
:1034F000030EE15C02E2E16AE552E16E14504FD046
:10350000DBCFE6FFAAD8EECFE6FFEFCFE6FFB5D8D8
:1035100000091200FD0EDBCFE9FFFE0EDBCFEAFF54
:103520001200040DF3CFE9FFF4CFEAFF350EE926D0
:10353000010EEA22120091D8EE2A000EEF221200AC
:10354000F90EDBCFE9FFFA0EDBCFEAFF1200FD0E2A
:10355000DBCF14F0FE0EDBCF15F012009AD878D82E
:1035600091D81450EE5E1550ED5A020EDB2A12006F
:10357000EECFE6FFEFCFE6FF88DFE552E55212001F
:1035800088D8EECF16F0EFCF17F01650145C175016
:1035900015581200D9CFE6FFE1CFD9FF1200E5524E
:1035A000E7CFD9FF1200DBCF16F016C017F0166A6E
:1035B000DF5000011610146E17C015F0120062D80B
:1035C000FF0ED880EE54000EED541200010114508D
:1035D0004A5D15504B591200EE2A000EEF222DEFD6
:1035E0001BF001014951F36E020EDBCFF4FFF350E3
:1035F000F45C12001426000E152214C0E6FF15C05C
:10360000E6FF120015C014F0156A020E14C0DBFFAD
:103610001200030EE126DE6ADD6A020EDB6A12008A
:10362000D9CFE9FFDACFEAFFEE50ED101200DE50FD
:103630001424E96EDD501520EA6E1200020EEE260B
:10364000000EED221200EECFDEFFEDCFDDFF120007
:10365000EECF14F0EFCF15F01200FB0EDBCFE9FF39
:10366000FC0EDBCFEAFF120055DF82DFDF6E8AEF50
:103670001AF0020EDB5091EF1AF023DFE552E5520B
:10368000E5521200D950FD0FE96EFF0EDA20EA6E06
:103690001200020EE926000EEA2212003BDF1EEFA6
:1036A0001BF055DFE6DFC0EF1AF04ADF28EF1BF012
:1036B000040130511F0B010801E012003051600B72
:1036C000E842E842E842E842E842010801E012002C
:1036D000345103E0340501E012003151220A31E097
:1036E000030A24E0010A15E0210A0DE0010A01E0C5
:1036F00012000101F40E166F000E176F080E196FFD
:103700001A6B188121D00101F40E166F000E176F8D
:103710001BD036C41EF137C41FF10101800E1B6F90
:10372000050E1C6F206B216B1D8F12000101800E96
:10373000166F050E176F070E196F1A6BC10E186FF3
:10374000120032C4EFF00101188F12000501806BE6
:103750004B0E816F826B836B846B856B080E866F5B
:103760000001E36B1A0EE66E010EE66E06EC09F040
:10377000E552E5521E0EE66E020EE66E06EC09F00C
:10378000E552E55224D90001ED6BEE6BE46B1200BB
:1037900049D97BD9050E061801E1075002E0000E59
:1037A00014D050D90001EB51141804E1EC51151854
:1037B00001E10DD947D90001ED51141805E1EE5191
:1037C000151802E1E46BE96B010E31D12BD9000130
:1037D000E36BEB51EC1102E1000E05D041D9EF5043
:1037E000800B01E0010E00092DE1FC0EDBCF14F08F
:1037F00037D9EE52EF50D880145405E231D9EE5249
:10380000FC0EEFCFDBFFE36BFC0EDB50E35D19E258
:10381000E351EA6A400FE96E050EEA22EF50E66EC8
:10382000E351E76EFD0EDBCFE9FFFE0EDBCFEAFFD3
:10383000E750E926000EEA22E552E750EF6EE32B4F
:10384000E3D7C5D80001E351F2D0ECD8A09A00012B
:10385000E45107E1F0D8FC0EDBCFE9F0010EEA6F8E
:10386000E46FA08AE4D00AD917E1C6D8F2D802E101
:1038700015500BE0010EDBCFE9FFDB2A020EDBCF98
:10388000EAFF01E3DB2AEF50F1E1D5D8DFCFE9F021
:103890000001010EEA6FE46FA08A030EE15C02E210
:1038A000E16AE552E16EC3D0E9D818E1A5D8D1D8D4
:1038B00002E115500CE0010EDBCFF6FFDB2A020E11
:1038C000DBCFF7FF01E3DB2A0800F550F0E1B3D8C6
:1038D000DFCFE9F00001EA6B010EE46FA08A030E6E
:1038E000E15C02E2E16AE552E16EA1D09BD8020EF2
:1038F000E126A09A0001ED51EE1102E1000E08D080
:10390000EDC0E9FFEEC0EAFFEF50800B01E0010ED1
:10391000000906E1030EE45D01E1E46BE45102E11C
:10392000A08A4ED0020EE45D09E1E66A000EE66E62
:10393000E66A5AD80001030EE46F41D0E4053FE186
:10394000400E146E156AE951145C000E155803E21E
:10395000400EDF6E02D0E9C0DFFFDF50E95DE96FA6
:10396000000EE76F050EE86F010EDFCFDBFFEA51B7
:103970000BE1010EDB5012E0E5C0F6FFE6C0F7FFF9
:103980000800F55042D8F5D7010EDB5007E0E5C03E
:10399000E9FFE6C0EAFFEF5038D8F6D70001E95159
:1039A00007E1400EDF5C02E1020E01D0030EE46F7E
:1039B000DFCFE6FF000EE66E050EE66E15D8A08A94
:1039C000020EE15C02E2E16AE552E16E30D0400EA7
:1039D000E66E400EE66E050EE66EE66A46D8F3CF5A
:1039E000EBF0F4CFECF01200010EE66E3ED8F3CF10
:1039F000EDF0F4CFEEF01200DF6A47D8DE5206C0D9
:103A0000DEFF07C0DDFFDD521200E7C0E9FFE8C0BE
:103A1000EAFFEF6EE72B000EE823E52BE623010E0D
:103A2000DB061200D9CFE6FFE1CFD9FF1200E55245
:103A3000E7CFD9FF1200FD0EDBCFE5F0FE0EDBCFA6
:103A4000E6F01200FB0EDBCF14F0FC0EDBCF15F01E
:103A50001200DF2ADF50146E156AFF0E14181200D0
:103A6000EBC0E9FFECC0EAFF1200020EE66E2AECA2
:103A700009F0146E050EE15E14501200D3DF030E40
:103A8000E126A09A0001E4511200FD0EDBCF06F002
:083A9000FE0EDBCF07F012006F
:083A9800D9CFE6FFE1CFD9FF11
:103AA000FE0EDBCF57F10101566B586B596B5A6B09
:103AB0005B6B5C6B5D6B5E6B5F6BE552E7CFD9FF59
:103AC0001200D9CFE6FFE1CFD9FF030EE12656C1A0
:103AD000DFFFFE0EDB1C01015715566FDF50561934
:103AE000E76E010EE7CFDBFFDB505615596F010E75
:103AF000DBCFE6FF561DE552E714586F565103E140
:103B00005E6B5F6B1CD0880E5E5D130E5F5909E320
:103B10005D5105E1010E5D6F56C15CF114D05C6B27
:103B200012D0D00E5E5D070E5F5909E35B5105E1CF
:103B3000010E5B6F56C15AF106D05A6B04D05A6B16
:103B40005B6B5C6B5D6B030EE15C02E2E16AE5526C
:103B5000E16EE552E7CFD9FF12000101FF0E5E5D75
:103B6000FF0E5F5903E25E2B000E5F23120001017E
:103B70005651120001015851120001015951120011
:0C3B800001015A51120001015C511200B9
:043B8C00FF0EE3CF76
:103B9000EAFFE552FF0EE3CFE9FFE552E66AE66A87
:103BA000D9CFE6FFDACFE6FFFC0EE124D96EFF0E97
:103BB000E220DA6EE66AE66AE66A200EEF5C06E06C
:103BC000090EEF5C03E0EF6603D03FD0EE50F5D76F
:103BD0002D0EEF5C03E1FF0EE32A03D02B0EEF5C0A
:103BE00001E1EE502F0EEF6424D03A0EEF6021D0A9
:103BF000D890F90EE336FA0EE336FD0EDECFE3FF82
:103C0000FE0EDDCFE3FFD890F90EE336FA0EE33671
:103C1000D890F90EE336FA0EE336FD0EE350DE26B9
:103C2000FE0EE350DD22300EEE5CDE26000EDD22BD
:103C3000D9D7FF0EE3CFE8FFE85207E0F90EE31E05
:103C4000E32AFA0ED8B4E306E31EE552E552E55244
:103C5000FF0EE3CFDAFFE552FF0EE3CFD9FFE552C7
:103C6000E1CFE9FFE2CFEAFFED52ED52EECFF3FFF5
:063C7000EFCFF4FF12008B
:0A3C7600FE0EE3CFE9FFFF0EE3CFDF
:103C8000EAFFE9CFF3FFEACFF4FFFB0EE35003E1D5
:103C9000FC0EE35009E0FB0EE30602E2FC0EE30635
:103CA000FD0EE350EE6EF1D71200FB0EE3CFF6FFF0
:103CB000FC0EE3CFF7FFFD0EE3CFF8FFFE0EE3CFE0
:103CC000E9FFFF0EE3CFEAFFE9CFF3FFEACFF4FF0E
:103CD0000900F5CFEFFFEE66FBD71200FE0EE3CF33
:103CE000E9FFFF0EE3CFEAFFF36AF46AEE5203E066
:103CF000F34AF42AFBD71200FF0EE3CFF8FFE55298
:103D0000FF0EE3CFF7FFE552FF0EE3CFF6FFE552DC
:103D1000E66AE66AE66A0900F55209E0FD0EE32A62
:103D200005E1FE0EE32A02E1FF0EE32AF4D7FD0EC1
:103D3000E3CF05F0FE0EE3CF06F0FF0EE3CF07F072
:023D400012006F
:0E3D42001201000202000008D8040A0000016D
:103D50000102000109024300020100C0320904000F
:103D600000010202010005240010010424020205E2
:103D70002406000105240100010705810308000253
:103D800009040100020A00000007050202400000C9
:103D9000070582024000000403090434034D006952
:103DA00000630072006F006300680069007000200B
:103DB0000054006500630068006E006F006C006FC7
:103DC0000067007900200049006E0063002E003477
:103DD000034300440043002000520053002D0032F2
:103DE0000033003200200045006D0075006C00615A
:103DF00000740069006F006E002000440065006DD3
:0B3E0000006F00543D973D9B3DCF3DFF
:053E0B0073656E6465A3
:103E1000642069720D0A007C0D0A007C25632575FB
:103E2000007061727365206572726F722E206E650C
:103E3000656420277C27206F72206E756D62657225
:103E40002E205B25642C25635D0D0A007061727362
:103E500065206572726F722E206E656564206E75C6
:103E60006D6265722E205B25642C25635D0D0A0052
:103E70007061727365206572726F722E206E656557
:103E80006420274827206F7220274C272E205B258F
:103E9000642C25635D0D0A00706172736520657284
:103EA000726F722E206E65656420277C272E205B42
:093EB00025642C25635D0D0A0058
:063EBA00D9CFE6FFDACFCC
:103EC000E6FFE1CFD9FFE2CFDAFFE652E652E65253
:103ED000E652D950F90F146EFF0EDA20156E020E5D
:103EE00014C0DBFF030E15C0DBFF020EDBCFE6FFC5
:103EF000030EDBCFE6FFF90EDBCFE6FFFA0EDBCFDA
:103F0000E6FFFB0EDBCFE6FFD950FC0FE66EFF0E9F
:103F1000DA20E66EB2EC0EF0146E070EE15C02E2FF
:103F2000E16AE552E16E1450F3CFDEFFF4CFDDFF1E
:103F3000FC0EDBCFE9FFFD0EDBCFEAFFEF6ADECF41
:103F400014F0DDCF15F014C0F3FF15C0F4FF040E1C
:103F5000E15C02E2E16AE552E16EE552E5CFDAFFAB
:063F6000E7CFD9FF1200BB
:0A3F66002A0EF66E100EF76E000E24
:103F7000F86E01010900F550516F0900F550526FBC
:103F800003E1516701D03DD00900F5504C6F0900A5
:103F9000F5504D6F0900F5504E6F09000900F550BE
:103FA000E96E0900F550EA6E090009000900F550B4
:103FB0004F6F0900F550506F09000900F6CF53F11B
:103FC000F7CF54F1F8CF55F14CC1F6FF4DC1F7FFD3
:103FD0004EC1F8FF01014F5302E1505307E00900C1
:103FE000F550EE6E4F07F8E25007F9D753C1F6FFD0
:103FF00054C1F7FF55C1F8FF01015107000E525B94
:04400000BFD7120014
:0C400400D9CFE6FFDACFE6FFE1CFD9FF0D
:10401000E2CFDAFFFB0EDBCF14F0FC0EDBCF15F0A6
:104020000001800E15141AE1FB0EDBCFE9FFFC0E38
:10403000DBCFEAFFEECFF3FFEDCFF4FFEE2A000E69
:10404000EF22F3CFE9FFF4CFEAFFFD0EDBCFEFFF66
:10405000EF50156AF36E15C0F4FF10D0FB0EDB5065
:10406000FE0806E1FD0EDBCFE6FF6BEC21F005D08C
:10407000FD0EDBCFE6FF8DEC21F0E552E552E5CFFA
:08408000DAFFE7CFD9FF1200BF
:0840880004500B02F3CF00F01D
:10409000F4CF01F00C02F3500126000EF420026E62
:1040A00004500D02F3500226000EF420036E04505B
:1040B0000E02F350032605500B02F3500126F45074
:1040C0000222000E032205500C02F3500226F45087
:1040D000032205500D02F350032606500B02F35045
:1040E0000226F450032206500C02F3500326075018
:0840F0000B02F350032612003D
:0840F80007C013F006C012F02E
:1041000006500D02F4CF05F0F3CF04F007500E0275
:10411000F4CF07F0F3CF06F00D02F3500526F4506C
:104120000622E86A072212500E02F3500526F450C8
:104130000622E86A07220EAEA2EF20F01250065EB9
:104140001350075A13AE000C0D50065E0E50075A5E
:02415000000C61
:0E415200036A026A016A006A200EE76ED890C6
:104160000436053606360736003601360236033683
:104170000B50005C0C5001580D5002580E50035863
:1041800009E30B50005E0C50015A0D50025A0E50BC
:0A419000035A042AE72EE4D71200B8
:06419A00D9CFE6FFDACFE9
:1041A000E6FFE1CFD9FFE2CFDAFFE652E652D65082
:1041B000DF6E010ED7CFDBFFDECF14F0DDCF15F0C1
:1041C00014C0F3FF15C0F4FFE552E552E552E5CF08
:0841D000DAFFE7CFD9FF12006E
:0841D800D9CFE6FFDACFE6FFC4
:1041E000E1CFD9FFE2CFDAFFE652E652FC0EDBCF99
:1041F000DEFFDBCFDDFF010EDB50CF6EDF50CE6E7A
:10420000E552E552E552E5CFDAFFE7CFD9FF1200DC
:10421000D9CFE6FFDACFE6FFE1CFD9FFE2CFDAFF71
:10422000E652E652FC0EDBCFDEFFDBCFDDFF010EF8
:10423000DB50D76EDF50D66EE552E552E552E5CF42
:08424000DAFFE7CFD9FF1200FD
:08424800FF0EE3501D6EEF0EA6
:1042500001D0F30EE76EE72E2BEF21F00C0E1C6E53
:10426000E76AE72E31EF21F01C2E30EF21F01D2EF2
:0642700029EF21F012000D
:0A427600F36AF46AFF0EE124E96E1A
:10428000FF0EE220EA6EED6607D02F0EEF6404D039
:0A4290003A0EEF6001D0F32A12008D
:06429A00000EF36E00EEC1
:1042A00000F0080E01D81200EA6002D0EE6AFCD7D6
:0A42B000F350E9601200EE6AFCD73B
:0642BA0013EE00F023EEFC
:1042C00000F0F86A0A9CB3EC1FF08EEC21F009ECC8
:0642D00015F0FBD71200FF
:0A42D600FF0EE350ACBA04D0AF6A4B
:1042E000AB8EAC8A949CACA2FED7AD6EF36EF46A32
:0242F0001200BA
:0E42F200FF0EE350E84E1200000000D000D096
:0843000000D0E82EFAD71200EC
:08430800303132333435363711
:09431000383961626364656600DE
:02431A0012008F
:02431C0012008D
:020000040030CA
:0100000024DB
:010001000EF0
:010002003FBE
:010003001EDE
:010005008179
:010006008178
:010008000FE8
:01000900C036
:01000A000FE6
:01000B00E014
:01000C000FE4
:01000D0040B2
:00000001FF
